{
  "contractName": "RoyalPets",
  "abi": [
    {
      "inputs": [],
      "stateMutability": "nonpayable",
      "type": "constructor"
    },
    {
      "anonymous": false,
      "inputs": [
        {
          "indexed": true,
          "internalType": "address",
          "name": "owner",
          "type": "address"
        },
        {
          "indexed": true,
          "internalType": "address",
          "name": "approved",
          "type": "address"
        },
        {
          "indexed": true,
          "internalType": "uint256",
          "name": "tokenId",
          "type": "uint256"
        }
      ],
      "name": "Approval",
      "type": "event"
    },
    {
      "anonymous": false,
      "inputs": [
        {
          "indexed": true,
          "internalType": "address",
          "name": "owner",
          "type": "address"
        },
        {
          "indexed": true,
          "internalType": "address",
          "name": "operator",
          "type": "address"
        },
        {
          "indexed": false,
          "internalType": "bool",
          "name": "approved",
          "type": "bool"
        }
      ],
      "name": "ApprovalForAll",
      "type": "event"
    },
    {
      "anonymous": false,
      "inputs": [
        {
          "indexed": true,
          "internalType": "address",
          "name": "previousOwner",
          "type": "address"
        },
        {
          "indexed": true,
          "internalType": "address",
          "name": "newOwner",
          "type": "address"
        }
      ],
      "name": "OwnershipTransferred",
      "type": "event"
    },
    {
      "anonymous": false,
      "inputs": [
        {
          "indexed": true,
          "internalType": "address",
          "name": "from",
          "type": "address"
        },
        {
          "indexed": true,
          "internalType": "address",
          "name": "to",
          "type": "address"
        },
        {
          "indexed": true,
          "internalType": "uint256",
          "name": "tokenId",
          "type": "uint256"
        }
      ],
      "name": "Transfer",
      "type": "event"
    },
    {
      "inputs": [
        {
          "internalType": "address",
          "name": "to",
          "type": "address"
        },
        {
          "internalType": "uint256",
          "name": "tokenId",
          "type": "uint256"
        }
      ],
      "name": "approve",
      "outputs": [],
      "stateMutability": "nonpayable",
      "type": "function"
    },
    {
      "inputs": [
        {
          "internalType": "address",
          "name": "owner",
          "type": "address"
        }
      ],
      "name": "balanceOf",
      "outputs": [
        {
          "internalType": "uint256",
          "name": "",
          "type": "uint256"
        }
      ],
      "stateMutability": "view",
      "type": "function",
      "constant": true
    },
    {
      "inputs": [
        {
          "internalType": "uint256",
          "name": "tokenId",
          "type": "uint256"
        }
      ],
      "name": "getApproved",
      "outputs": [
        {
          "internalType": "address",
          "name": "",
          "type": "address"
        }
      ],
      "stateMutability": "view",
      "type": "function",
      "constant": true
    },
    {
      "inputs": [
        {
          "internalType": "address",
          "name": "owner",
          "type": "address"
        },
        {
          "internalType": "address",
          "name": "operator",
          "type": "address"
        }
      ],
      "name": "isApprovedForAll",
      "outputs": [
        {
          "internalType": "bool",
          "name": "",
          "type": "bool"
        }
      ],
      "stateMutability": "view",
      "type": "function",
      "constant": true
    },
    {
      "inputs": [],
      "name": "name",
      "outputs": [
        {
          "internalType": "string",
          "name": "",
          "type": "string"
        }
      ],
      "stateMutability": "view",
      "type": "function",
      "constant": true
    },
    {
      "inputs": [],
      "name": "owner",
      "outputs": [
        {
          "internalType": "address",
          "name": "",
          "type": "address"
        }
      ],
      "stateMutability": "view",
      "type": "function",
      "constant": true
    },
    {
      "inputs": [
        {
          "internalType": "uint256",
          "name": "tokenId",
          "type": "uint256"
        }
      ],
      "name": "ownerOf",
      "outputs": [
        {
          "internalType": "address",
          "name": "",
          "type": "address"
        }
      ],
      "stateMutability": "view",
      "type": "function",
      "constant": true
    },
    {
      "inputs": [],
      "name": "renounceOwnership",
      "outputs": [],
      "stateMutability": "nonpayable",
      "type": "function"
    },
    {
      "inputs": [
        {
          "internalType": "uint256",
          "name": "_tokenId",
          "type": "uint256"
        },
        {
          "internalType": "uint256",
          "name": "_salePrice",
          "type": "uint256"
        }
      ],
      "name": "royaltyInfo",
      "outputs": [
        {
          "internalType": "address",
          "name": "",
          "type": "address"
        },
        {
          "internalType": "uint256",
          "name": "",
          "type": "uint256"
        }
      ],
      "stateMutability": "view",
      "type": "function",
      "constant": true
    },
    {
      "inputs": [
        {
          "internalType": "address",
          "name": "from",
          "type": "address"
        },
        {
          "internalType": "address",
          "name": "to",
          "type": "address"
        },
        {
          "internalType": "uint256",
          "name": "tokenId",
          "type": "uint256"
        }
      ],
      "name": "safeTransferFrom",
      "outputs": [],
      "stateMutability": "nonpayable",
      "type": "function"
    },
    {
      "inputs": [
        {
          "internalType": "address",
          "name": "from",
          "type": "address"
        },
        {
          "internalType": "address",
          "name": "to",
          "type": "address"
        },
        {
          "internalType": "uint256",
          "name": "tokenId",
          "type": "uint256"
        },
        {
          "internalType": "bytes",
          "name": "data",
          "type": "bytes"
        }
      ],
      "name": "safeTransferFrom",
      "outputs": [],
      "stateMutability": "nonpayable",
      "type": "function"
    },
    {
      "inputs": [
        {
          "internalType": "address",
          "name": "operator",
          "type": "address"
        },
        {
          "internalType": "bool",
          "name": "approved",
          "type": "bool"
        }
      ],
      "name": "setApprovalForAll",
      "outputs": [],
      "stateMutability": "nonpayable",
      "type": "function"
    },
    {
      "inputs": [],
      "name": "symbol",
      "outputs": [
        {
          "internalType": "string",
          "name": "",
          "type": "string"
        }
      ],
      "stateMutability": "view",
      "type": "function",
      "constant": true
    },
    {
      "inputs": [
        {
          "internalType": "uint256",
          "name": "tokenId",
          "type": "uint256"
        }
      ],
      "name": "tokenURI",
      "outputs": [
        {
          "internalType": "string",
          "name": "",
          "type": "string"
        }
      ],
      "stateMutability": "view",
      "type": "function",
      "constant": true
    },
    {
      "inputs": [
        {
          "internalType": "address",
          "name": "from",
          "type": "address"
        },
        {
          "internalType": "address",
          "name": "to",
          "type": "address"
        },
        {
          "internalType": "uint256",
          "name": "tokenId",
          "type": "uint256"
        }
      ],
      "name": "transferFrom",
      "outputs": [],
      "stateMutability": "nonpayable",
      "type": "function"
    },
    {
      "inputs": [
        {
          "internalType": "address",
          "name": "newOwner",
          "type": "address"
        }
      ],
      "name": "transferOwnership",
      "outputs": [],
      "stateMutability": "nonpayable",
      "type": "function"
    },
    {
      "inputs": [
        {
          "internalType": "bytes4",
          "name": "interfaceId",
          "type": "bytes4"
        }
      ],
      "name": "supportsInterface",
      "outputs": [
        {
          "internalType": "bool",
          "name": "",
          "type": "bool"
        }
      ],
      "stateMutability": "view",
      "type": "function",
      "constant": true
    },
    {
      "inputs": [
        {
          "internalType": "uint256",
          "name": "tokenId",
          "type": "uint256"
        }
      ],
      "name": "burnNFT",
      "outputs": [],
      "stateMutability": "nonpayable",
      "type": "function"
    },
    {
      "inputs": [
        {
          "internalType": "address",
          "name": "recipient",
          "type": "address"
        },
        {
          "internalType": "string",
          "name": "tokenURI",
          "type": "string"
        }
      ],
      "name": "mintNFT",
      "outputs": [
        {
          "internalType": "uint256",
          "name": "",
          "type": "uint256"
        }
      ],
      "stateMutability": "nonpayable",
      "type": "function"
    },
    {
      "inputs": [
        {
          "internalType": "address",
          "name": "recipient",
          "type": "address"
        },
        {
          "internalType": "string",
          "name": "tokenURI",
          "type": "string"
        },
        {
          "internalType": "address",
          "name": "royaltyReceiver",
          "type": "address"
        },
        {
          "internalType": "uint96",
          "name": "feeNumerator",
          "type": "uint96"
        }
      ],
      "name": "mintNFTWithRoyalty",
      "outputs": [
        {
          "internalType": "uint256",
          "name": "",
          "type": "uint256"
        }
      ],
      "stateMutability": "nonpayable",
      "type": "function"
    }
  ],
  "bytecode": "0x60806040523480156200001157600080fd5b506040518060400160405280600981526020017f526f79616c5065747300000000000000000000000000000000000000000000008152506040518060400160405280600281526020017f525000000000000000000000000000000000000000000000000000000000000081525081600090816200008f9190620005d2565b508060019081620000a19190620005d2565b505050620000c4620000b8620000dd60201b60201c565b620000e560201b60201c565b620000d7336064620001ab60201b60201c565b620007d4565b600033905090565b6000600960009054906101000a900473ffffffffffffffffffffffffffffffffffffffff16905081600960006101000a81548173ffffffffffffffffffffffffffffffffffffffff021916908373ffffffffffffffffffffffffffffffffffffffff1602179055508173ffffffffffffffffffffffffffffffffffffffff168173ffffffffffffffffffffffffffffffffffffffff167f8be0079c531659141344cd1fd0a4f28419497f9722a3daafe3b4186f6b6457e060405160405180910390a35050565b620001bb6200034e60201b60201c565b6bffffffffffffffffffffffff16816bffffffffffffffffffffffff1611156200021c576040517f08c379a0000000000000000000000000000000000000000000000000000000008152600401620002139062000740565b60405180910390fd5b600073ffffffffffffffffffffffffffffffffffffffff168273ffffffffffffffffffffffffffffffffffffffff16036200028e576040517f08c379a00000000000000000000000000000000000000000000000000000000081526004016200028590620007b2565b60405180910390fd5b60405180604001604052808373ffffffffffffffffffffffffffffffffffffffff168152602001826bffffffffffffffffffffffff16815250600760008201518160000160006101000a81548173ffffffffffffffffffffffffffffffffffffffff021916908373ffffffffffffffffffffffffffffffffffffffff16021790555060208201518160000160146101000a8154816bffffffffffffffffffffffff02191690836bffffffffffffffffffffffff1602179055509050505050565b6000612710905090565b600081519050919050565b7f4e487b7100000000000000000000000000000000000000000000000000000000600052604160045260246000fd5b7f4e487b7100000000000000000000000000000000000000000000000000000000600052602260045260246000fd5b60006002820490506001821680620003da57607f821691505b602082108103620003f057620003ef62000392565b5b50919050565b60008190508160005260206000209050919050565b60006020601f8301049050919050565b600082821b905092915050565b6000600883026200045a7fffffffffffffffffffffffffffffffffffffffffffffffffffffffffffffffff826200041b565b6200046686836200041b565b95508019841693508086168417925050509392505050565b6000819050919050565b6000819050919050565b6000620004b3620004ad620004a7846200047e565b62000488565b6200047e565b9050919050565b6000819050919050565b620004cf8362000492565b620004e7620004de82620004ba565b84845462000428565b825550505050565b600090565b620004fe620004ef565b6200050b818484620004c4565b505050565b5b81811015620005335762000527600082620004f4565b60018101905062000511565b5050565b601f82111562000582576200054c81620003f6565b62000557846200040b565b8101602085101562000567578190505b6200057f62000576856200040b565b83018262000510565b50505b505050565b600082821c905092915050565b6000620005a76000198460080262000587565b1980831691505092915050565b6000620005c2838362000594565b9150826002028217905092915050565b620005dd8262000358565b67ffffffffffffffff811115620005f957620005f862000363565b5b620006058254620003c1565b6200061282828562000537565b600060209050601f8311600181146200064a576000841562000635578287015190505b620006418582620005b4565b865550620006b1565b601f1984166200065a86620003f6565b60005b8281101562000684578489015182556001820191506020850194506020810190506200065d565b86831015620006a45784890151620006a0601f89168262000594565b8355505b6001600288020188555050505b505050505050565b600082825260208201905092915050565b7f455243323938313a20726f79616c7479206665652077696c6c2065786365656460008201527f2073616c65507269636500000000000000000000000000000000000000000000602082015250565b600062000728602a83620006b9565b91506200073582620006ca565b604082019050919050565b600060208201905081810360008301526200075b8162000719565b9050919050565b7f455243323938313a20696e76616c696420726563656976657200000000000000600082015250565b60006200079a601983620006b9565b9150620007a78262000762565b602082019050919050565b60006020820190508181036000830152620007cd816200078b565b9050919050565b613a0380620007e46000396000f3fe608060405234801561001057600080fd5b506004361061012c5760003560e01c8063715018a6116100ad578063b88d4fde11610071578063b88d4fde14610342578063c87b56dd1461035e578063e985e9c51461038e578063eacabe14146103be578063f2fde38b146103ee5761012c565b8063715018a6146102b057806375eacc20146102ba5780638da5cb5b146102ea57806395d89b4114610308578063a22cb465146103265761012c565b80632890e0d7116100f45780632890e0d7146101e75780632a55205a1461020357806342842e0e146102345780636352211e1461025057806370a08231146102805761012c565b806301ffc9a71461013157806306fdde0314610161578063081812fc1461017f578063095ea7b3146101af57806323b872dd146101cb575b600080fd5b61014b600480360381019061014691906124bc565b61040a565b6040516101589190612504565b60405180910390f35b61016961041c565b60405161017691906125af565b60405180910390f35b61019960048036038101906101949190612607565b6104ae565b6040516101a69190612675565b60405180910390f35b6101c960048036038101906101c491906126bc565b6104f4565b005b6101e560048036038101906101e091906126fc565b61060b565b005b61020160048036038101906101fc9190612607565b61066b565b005b61021d6004803603810190610218919061274f565b61067f565b60405161022b92919061279e565b60405180910390f35b61024e600480360381019061024991906126fc565b610869565b005b61026a60048036038101906102659190612607565b610889565b6040516102779190612675565b60405180910390f35b61029a600480360381019061029591906127c7565b61090f565b6040516102a791906127f4565b60405180910390f35b6102b86109c6565b005b6102d460048036038101906102cf9190612988565b6109da565b6040516102e191906127f4565b60405180910390f35b6102f2610a09565b6040516102ff9190612675565b60405180910390f35b610310610a33565b60405161031d91906125af565b60405180910390f35b610340600480360381019061033b9190612a37565b610ac5565b005b61035c60048036038101906103579190612b18565b610adb565b005b61037860048036038101906103739190612607565b610b3d565b60405161038591906125af565b60405180910390f35b6103a860048036038101906103a39190612b9b565b610c4f565b6040516103b59190612504565b60405180910390f35b6103d860048036038101906103d39190612bdb565b610ce3565b6040516103e591906127f4565b60405180910390f35b610408600480360381019061040391906127c7565b610d23565b005b600061041582610da6565b9050919050565b60606000805461042b90612c66565b80601f016020809104026020016040519081016040528092919081815260200182805461045790612c66565b80156104a45780601f10610479576101008083540402835291602001916104a4565b820191906000526020600020905b81548152906001019060200180831161048757829003601f168201915b5050505050905090565b60006104b982610e20565b6004600083815260200190815260200160002060009054906101000a900473ffffffffffffffffffffffffffffffffffffffff169050919050565b60006104ff82610889565b90508073ffffffffffffffffffffffffffffffffffffffff168373ffffffffffffffffffffffffffffffffffffffff160361056f576040517f08c379a000000000000000000000000000000000000000000000000000000000815260040161056690612d09565b60405180910390fd5b8073ffffffffffffffffffffffffffffffffffffffff1661058e610e6b565b73ffffffffffffffffffffffffffffffffffffffff1614806105bd57506105bc816105b7610e6b565b610c4f565b5b6105fc576040517f08c379a00000000000000000000000000000000000000000000000000000000081526004016105f390612d9b565b60405180910390fd5b6106068383610e73565b505050565b61061c610616610e6b565b82610f2c565b61065b576040517f08c379a000000000000000000000000000000000000000000000000000000000815260040161065290612e2d565b60405180910390fd5b610666838383610fc1565b505050565b6106736112ba565b61067c81611338565b50565b6000806000600860008681526020019081526020016000206040518060400160405290816000820160009054906101000a900473ffffffffffffffffffffffffffffffffffffffff1673ffffffffffffffffffffffffffffffffffffffff1673ffffffffffffffffffffffffffffffffffffffff1681526020016000820160149054906101000a90046bffffffffffffffffffffffff166bffffffffffffffffffffffff166bffffffffffffffffffffffff16815250509050600073ffffffffffffffffffffffffffffffffffffffff16816000015173ffffffffffffffffffffffffffffffffffffffff16036108145760076040518060400160405290816000820160009054906101000a900473ffffffffffffffffffffffffffffffffffffffff1673ffffffffffffffffffffffffffffffffffffffff1673ffffffffffffffffffffffffffffffffffffffff1681526020016000820160149054906101000a90046bffffffffffffffffffffffff166bffffffffffffffffffffffff166bffffffffffffffffffffffff168152505090505b600061081e61134d565b6bffffffffffffffffffffffff1682602001516bffffffffffffffffffffffff168661084a9190612e7c565b6108549190612eed565b90508160000151819350935050509250929050565b61088483838360405180602001604052806000815250610adb565b505050565b60008061089583611357565b9050600073ffffffffffffffffffffffffffffffffffffffff168173ffffffffffffffffffffffffffffffffffffffff1603610906576040517f08c379a00000000000000000000000000000000000000000000000000000000081526004016108fd90612f6a565b60405180910390fd5b80915050919050565b60008073ffffffffffffffffffffffffffffffffffffffff168273ffffffffffffffffffffffffffffffffffffffff160361097f576040517f08c379a000000000000000000000000000000000000000000000000000000000815260040161097690612ffc565b60405180910390fd5b600360008373ffffffffffffffffffffffffffffffffffffffff1673ffffffffffffffffffffffffffffffffffffffff168152602001908152602001600020549050919050565b6109ce6112ba565b6109d86000611394565b565b60006109e46112ba565b60006109f08686610ce3565b90506109fd81858561145a565b80915050949350505050565b6000600960009054906101000a900473ffffffffffffffffffffffffffffffffffffffff16905090565b606060018054610a4290612c66565b80601f0160208091040260200160405190810160405280929190818152602001828054610a6e90612c66565b8015610abb5780601f10610a9057610100808354040283529160200191610abb565b820191906000526020600020905b815481529060010190602001808311610a9e57829003601f168201915b5050505050905090565b610ad7610ad0610e6b565b8383611601565b5050565b610aec610ae6610e6b565b83610f2c565b610b2b576040517f08c379a0000000000000000000000000000000000000000000000000000000008152600401610b2290612e2d565b60405180910390fd5b610b378484848461176d565b50505050565b6060610b4882610e20565b6000600660008481526020019081526020016000208054610b6890612c66565b80601f0160208091040260200160405190810160405280929190818152602001828054610b9490612c66565b8015610be15780601f10610bb657610100808354040283529160200191610be1565b820191906000526020600020905b815481529060010190602001808311610bc457829003601f168201915b505050505090506000610bf26117c9565b90506000815103610c07578192505050610c4a565b600082511115610c3c578082604051602001610c24929190613058565b60405160208183030381529060405292505050610c4a565b610c45846117e0565b925050505b919050565b6000600560008473ffffffffffffffffffffffffffffffffffffffff1673ffffffffffffffffffffffffffffffffffffffff16815260200190815260200160002060008373ffffffffffffffffffffffffffffffffffffffff1673ffffffffffffffffffffffffffffffffffffffff16815260200190815260200160002060009054906101000a900460ff16905092915050565b6000610ced6112ba565b610cf7600a611848565b6000610d03600a61185e565b9050610d0f848261186c565b610d19818461188a565b8091505092915050565b610d2b6112ba565b600073ffffffffffffffffffffffffffffffffffffffff168173ffffffffffffffffffffffffffffffffffffffff1603610d9a576040517f08c379a0000000000000000000000000000000000000000000000000000000008152600401610d91906130ee565b60405180910390fd5b610da381611394565b50565b60007f2a55205a000000000000000000000000000000000000000000000000000000007bffffffffffffffffffffffffffffffffffffffffffffffffffffffff1916827bffffffffffffffffffffffffffffffffffffffffffffffffffffffff19161480610e195750610e18826118f7565b5b9050919050565b610e29816119d9565b610e68576040517f08c379a0000000000000000000000000000000000000000000000000000000008152600401610e5f90612f6a565b60405180910390fd5b50565b600033905090565b816004600083815260200190815260200160002060006101000a81548173ffffffffffffffffffffffffffffffffffffffff021916908373ffffffffffffffffffffffffffffffffffffffff160217905550808273ffffffffffffffffffffffffffffffffffffffff16610ee683610889565b73ffffffffffffffffffffffffffffffffffffffff167f8c5be1e5ebec7d5bd14f71427d1e84f3dd0314c0f7b2291e5b200ac8c7c3b92560405160405180910390a45050565b600080610f3883610889565b90508073ffffffffffffffffffffffffffffffffffffffff168473ffffffffffffffffffffffffffffffffffffffff161480610f7a5750610f798185610c4f565b5b80610fb857508373ffffffffffffffffffffffffffffffffffffffff16610fa0846104ae565b73ffffffffffffffffffffffffffffffffffffffff16145b91505092915050565b8273ffffffffffffffffffffffffffffffffffffffff16610fe182610889565b73ffffffffffffffffffffffffffffffffffffffff1614611037576040517f08c379a000000000000000000000000000000000000000000000000000000000815260040161102e90613180565b60405180910390fd5b600073ffffffffffffffffffffffffffffffffffffffff168273ffffffffffffffffffffffffffffffffffffffff16036110a6576040517f08c379a000000000000000000000000000000000000000000000000000000000815260040161109d90613212565b60405180910390fd5b6110b38383836001611a1a565b8273ffffffffffffffffffffffffffffffffffffffff166110d382610889565b73ffffffffffffffffffffffffffffffffffffffff1614611129576040517f08c379a000000000000000000000000000000000000000000000000000000000815260040161112090613180565b60405180910390fd5b6004600082815260200190815260200160002060006101000a81549073ffffffffffffffffffffffffffffffffffffffff02191690556001600360008573ffffffffffffffffffffffffffffffffffffffff1673ffffffffffffffffffffffffffffffffffffffff168152602001908152602001600020600082825403925050819055506001600360008473ffffffffffffffffffffffffffffffffffffffff1673ffffffffffffffffffffffffffffffffffffffff16815260200190815260200160002060008282540192505081905550816002600083815260200190815260200160002060006101000a81548173ffffffffffffffffffffffffffffffffffffffff021916908373ffffffffffffffffffffffffffffffffffffffff160217905550808273ffffffffffffffffffffffffffffffffffffffff168473ffffffffffffffffffffffffffffffffffffffff167fddf252ad1be2c89b69c2b068fc378daa952ba7f163c4a11628f55a4df523b3ef60405160405180910390a46112b58383836001611b40565b505050565b6112c2610e6b565b73ffffffffffffffffffffffffffffffffffffffff166112e0610a09565b73ffffffffffffffffffffffffffffffffffffffff1614611336576040517f08c379a000000000000000000000000000000000000000000000000000000000815260040161132d9061327e565b60405180910390fd5b565b61134181611b46565b61134a81611b99565b50565b6000612710905090565b60006002600083815260200190815260200160002060009054906101000a900473ffffffffffffffffffffffffffffffffffffffff169050919050565b6000600960009054906101000a900473ffffffffffffffffffffffffffffffffffffffff16905081600960006101000a81548173ffffffffffffffffffffffffffffffffffffffff021916908373ffffffffffffffffffffffffffffffffffffffff1602179055508173ffffffffffffffffffffffffffffffffffffffff168173ffffffffffffffffffffffffffffffffffffffff167f8be0079c531659141344cd1fd0a4f28419497f9722a3daafe3b4186f6b6457e060405160405180910390a35050565b61146261134d565b6bffffffffffffffffffffffff16816bffffffffffffffffffffffff1611156114c0576040517f08c379a00000000000000000000000000000000000000000000000000000000081526004016114b790613310565b60405180910390fd5b600073ffffffffffffffffffffffffffffffffffffffff168273ffffffffffffffffffffffffffffffffffffffff160361152f576040517f08c379a00000000000000000000000000000000000000000000000000000000081526004016115269061337c565b60405180910390fd5b60405180604001604052808373ffffffffffffffffffffffffffffffffffffffff168152602001826bffffffffffffffffffffffff168152506008600085815260200190815260200160002060008201518160000160006101000a81548173ffffffffffffffffffffffffffffffffffffffff021916908373ffffffffffffffffffffffffffffffffffffffff16021790555060208201518160000160146101000a8154816bffffffffffffffffffffffff02191690836bffffffffffffffffffffffff160217905550905050505050565b8173ffffffffffffffffffffffffffffffffffffffff168373ffffffffffffffffffffffffffffffffffffffff160361166f576040517f08c379a0000000000000000000000000000000000000000000000000000000008152600401611666906133e8565b60405180910390fd5b80600560008573ffffffffffffffffffffffffffffffffffffffff1673ffffffffffffffffffffffffffffffffffffffff16815260200190815260200160002060008473ffffffffffffffffffffffffffffffffffffffff1673ffffffffffffffffffffffffffffffffffffffff16815260200190815260200160002060006101000a81548160ff0219169083151502179055508173ffffffffffffffffffffffffffffffffffffffff168373ffffffffffffffffffffffffffffffffffffffff167f17307eab39ab6107e8899845ad3d59bd9653f200f220920489ca2b5937696c31836040516117609190612504565b60405180910390a3505050565b611778848484610fc1565b61178484848484611bf8565b6117c3576040517f08c379a00000000000000000000000000000000000000000000000000000000081526004016117ba9061347a565b60405180910390fd5b50505050565b606060405180602001604052806000815250905090565b60606117eb82610e20565b60006117f56117c9565b905060008151116118155760405180602001604052806000815250611840565b8061181f84611d7f565b604051602001611830929190613058565b6040516020818303038152906040525b915050919050565b6001816000016000828254019250508190555050565b600081600001549050919050565b611886828260405180602001604052806000815250611e4d565b5050565b611893826119d9565b6118d2576040517f08c379a00000000000000000000000000000000000000000000000000000000081526004016118c99061350c565b60405180910390fd5b806006600084815260200190815260200160002090816118f291906136d8565b505050565b60007f80ac58cd000000000000000000000000000000000000000000000000000000007bffffffffffffffffffffffffffffffffffffffffffffffffffffffff1916827bffffffffffffffffffffffffffffffffffffffffffffffffffffffff191614806119c257507f5b5e139f000000000000000000000000000000000000000000000000000000007bffffffffffffffffffffffffffffffffffffffffffffffffffffffff1916827bffffffffffffffffffffffffffffffffffffffffffffffffffffffff1916145b806119d257506119d182611ea8565b5b9050919050565b60008073ffffffffffffffffffffffffffffffffffffffff166119fb83611357565b73ffffffffffffffffffffffffffffffffffffffff1614159050919050565b6001811115611b3a57600073ffffffffffffffffffffffffffffffffffffffff168473ffffffffffffffffffffffffffffffffffffffff1614611aae5780600360008673ffffffffffffffffffffffffffffffffffffffff1673ffffffffffffffffffffffffffffffffffffffff1681526020019081526020016000206000828254611aa691906137aa565b925050819055505b600073ffffffffffffffffffffffffffffffffffffffff168373ffffffffffffffffffffffffffffffffffffffff1614611b395780600360008573ffffffffffffffffffffffffffffffffffffffff1673ffffffffffffffffffffffffffffffffffffffff1681526020019081526020016000206000828254611b3191906137de565b925050819055505b5b50505050565b50505050565b611b4f81611f12565b6000600660008381526020019081526020016000208054611b6f90612c66565b905014611b9657600660008281526020019081526020016000206000611b9591906123f3565b5b50565b60086000828152602001908152602001600020600080820160006101000a81549073ffffffffffffffffffffffffffffffffffffffff02191690556000820160146101000a8154906bffffffffffffffffffffffff0219169055505050565b6000611c198473ffffffffffffffffffffffffffffffffffffffff16612060565b15611d72578373ffffffffffffffffffffffffffffffffffffffff1663150b7a02611c42610e6b565b8786866040518563ffffffff1660e01b8152600401611c649493929190613867565b6020604051808303816000875af1925050508015611ca057506040513d601f19601f82011682018060405250810190611c9d91906138c8565b60015b611d22573d8060008114611cd0576040519150601f19603f3d011682016040523d82523d6000602084013e611cd5565b606091505b506000815103611d1a576040517f08c379a0000000000000000000000000000000000000000000000000000000008152600401611d119061347a565b60405180910390fd5b805181602001fd5b63150b7a0260e01b7bffffffffffffffffffffffffffffffffffffffffffffffffffffffff1916817bffffffffffffffffffffffffffffffffffffffffffffffffffffffff191614915050611d77565b600190505b949350505050565b606060006001611d8e84612083565b01905060008167ffffffffffffffff811115611dad57611dac612819565b5b6040519080825280601f01601f191660200182016040528015611ddf5781602001600182028036833780820191505090505b509050600082602001820190505b600115611e42578080600190039150507f3031323334353637383961626364656600000000000000000000000000000000600a86061a8153600a8581611e3657611e35612ebe565b5b04945060008503611ded575b819350505050919050565b611e5783836121d6565b611e646000848484611bf8565b611ea3576040517f08c379a0000000000000000000000000000000000000000000000000000000008152600401611e9a9061347a565b60405180910390fd5b505050565b60007f01ffc9a7000000000000000000000000000000000000000000000000000000007bffffffffffffffffffffffffffffffffffffffffffffffffffffffff1916827bffffffffffffffffffffffffffffffffffffffffffffffffffffffff1916149050919050565b6000611f1d82610889565b9050611f2d816000846001611a1a565b611f3682610889565b90506004600083815260200190815260200160002060006101000a81549073ffffffffffffffffffffffffffffffffffffffff02191690556001600360008373ffffffffffffffffffffffffffffffffffffffff1673ffffffffffffffffffffffffffffffffffffffff168152602001908152602001600020600082825403925050819055506002600083815260200190815260200160002060006101000a81549073ffffffffffffffffffffffffffffffffffffffff021916905581600073ffffffffffffffffffffffffffffffffffffffff168273ffffffffffffffffffffffffffffffffffffffff167fddf252ad1be2c89b69c2b068fc378daa952ba7f163c4a11628f55a4df523b3ef60405160405180910390a461205c816000846001611b40565b5050565b6000808273ffffffffffffffffffffffffffffffffffffffff163b119050919050565b600080600090507a184f03e93ff9f4daa797ed6e38ed64bf6a1f01000000000000000083106120e1577a184f03e93ff9f4daa797ed6e38ed64bf6a1f01000000000000000083816120d7576120d6612ebe565b5b0492506040810190505b6d04ee2d6d415b85acef8100000000831061211e576d04ee2d6d415b85acef8100000000838161211457612113612ebe565b5b0492506020810190505b662386f26fc10000831061214d57662386f26fc10000838161214357612142612ebe565b5b0492506010810190505b6305f5e1008310612176576305f5e100838161216c5761216b612ebe565b5b0492506008810190505b612710831061219b57612710838161219157612190612ebe565b5b0492506004810190505b606483106121be57606483816121b4576121b3612ebe565b5b0492506002810190505b600a83106121cd576001810190505b80915050919050565b600073ffffffffffffffffffffffffffffffffffffffff168273ffffffffffffffffffffffffffffffffffffffff1603612245576040517f08c379a000000000000000000000000000000000000000000000000000000000815260040161223c90613941565b60405180910390fd5b61224e816119d9565b1561228e576040517f08c379a0000000000000000000000000000000000000000000000000000000008152600401612285906139ad565b60405180910390fd5b61229c600083836001611a1a565b6122a5816119d9565b156122e5576040517f08c379a00000000000000000000000000000000000000000000000000000000081526004016122dc906139ad565b60405180910390fd5b6001600360008473ffffffffffffffffffffffffffffffffffffffff1673ffffffffffffffffffffffffffffffffffffffff16815260200190815260200160002060008282540192505081905550816002600083815260200190815260200160002060006101000a81548173ffffffffffffffffffffffffffffffffffffffff021916908373ffffffffffffffffffffffffffffffffffffffff160217905550808273ffffffffffffffffffffffffffffffffffffffff16600073ffffffffffffffffffffffffffffffffffffffff167fddf252ad1be2c89b69c2b068fc378daa952ba7f163c4a11628f55a4df523b3ef60405160405180910390a46123ef600083836001611b40565b5050565b5080546123ff90612c66565b6000825580601f106124115750612430565b601f01602090049060005260206000209081019061242f9190612433565b5b50565b5b8082111561244c576000816000905550600101612434565b5090565b6000604051905090565b600080fd5b600080fd5b60007fffffffff0000000000000000000000000000000000000000000000000000000082169050919050565b61249981612464565b81146124a457600080fd5b50565b6000813590506124b681612490565b92915050565b6000602082840312156124d2576124d161245a565b5b60006124e0848285016124a7565b91505092915050565b60008115159050919050565b6124fe816124e9565b82525050565b600060208201905061251960008301846124f5565b92915050565b600081519050919050565b600082825260208201905092915050565b60005b8381101561255957808201518184015260208101905061253e565b60008484015250505050565b6000601f19601f8301169050919050565b60006125818261251f565b61258b818561252a565b935061259b81856020860161253b565b6125a481612565565b840191505092915050565b600060208201905081810360008301526125c98184612576565b905092915050565b6000819050919050565b6125e4816125d1565b81146125ef57600080fd5b50565b600081359050612601816125db565b92915050565b60006020828403121561261d5761261c61245a565b5b600061262b848285016125f2565b91505092915050565b600073ffffffffffffffffffffffffffffffffffffffff82169050919050565b600061265f82612634565b9050919050565b61266f81612654565b82525050565b600060208201905061268a6000830184612666565b92915050565b61269981612654565b81146126a457600080fd5b50565b6000813590506126b681612690565b92915050565b600080604083850312156126d3576126d261245a565b5b60006126e1858286016126a7565b92505060206126f2858286016125f2565b9150509250929050565b6000806000606084860312156127155761271461245a565b5b6000612723868287016126a7565b9350506020612734868287016126a7565b9250506040612745868287016125f2565b9150509250925092565b600080604083850312156127665761276561245a565b5b6000612774858286016125f2565b9250506020612785858286016125f2565b9150509250929050565b612798816125d1565b82525050565b60006040820190506127b36000830185612666565b6127c0602083018461278f565b9392505050565b6000602082840312156127dd576127dc61245a565b5b60006127eb848285016126a7565b91505092915050565b6000602082019050612809600083018461278f565b92915050565b600080fd5b600080fd5b7f4e487b7100000000000000000000000000000000000000000000000000000000600052604160045260246000fd5b61285182612565565b810181811067ffffffffffffffff821117156128705761286f612819565b5b80604052505050565b6000612883612450565b905061288f8282612848565b919050565b600067ffffffffffffffff8211156128af576128ae612819565b5b6128b882612565565b9050602081019050919050565b82818337600083830152505050565b60006128e76128e284612894565b612879565b90508281526020810184848401111561290357612902612814565b5b61290e8482856128c5565b509392505050565b600082601f83011261292b5761292a61280f565b5b813561293b8482602086016128d4565b91505092915050565b60006bffffffffffffffffffffffff82169050919050565b61296581612944565b811461297057600080fd5b50565b6000813590506129828161295c565b92915050565b600080600080608085870312156129a2576129a161245a565b5b60006129b0878288016126a7565b945050602085013567ffffffffffffffff8111156129d1576129d061245f565b5b6129dd87828801612916565b93505060406129ee878288016126a7565b92505060606129ff87828801612973565b91505092959194509250565b612a14816124e9565b8114612a1f57600080fd5b50565b600081359050612a3181612a0b565b92915050565b60008060408385031215612a4e57612a4d61245a565b5b6000612a5c858286016126a7565b9250506020612a6d85828601612a22565b9150509250929050565b600067ffffffffffffffff821115612a9257612a91612819565b5b612a9b82612565565b9050602081019050919050565b6000612abb612ab684612a77565b612879565b905082815260208101848484011115612ad757612ad6612814565b5b612ae28482856128c5565b509392505050565b600082601f830112612aff57612afe61280f565b5b8135612b0f848260208601612aa8565b91505092915050565b60008060008060808587031215612b3257612b3161245a565b5b6000612b40878288016126a7565b9450506020612b51878288016126a7565b9350506040612b62878288016125f2565b925050606085013567ffffffffffffffff811115612b8357612b8261245f565b5b612b8f87828801612aea565b91505092959194509250565b60008060408385031215612bb257612bb161245a565b5b6000612bc0858286016126a7565b9250506020612bd1858286016126a7565b9150509250929050565b60008060408385031215612bf257612bf161245a565b5b6000612c00858286016126a7565b925050602083013567ffffffffffffffff811115612c2157612c2061245f565b5b612c2d85828601612916565b9150509250929050565b7f4e487b7100000000000000000000000000000000000000000000000000000000600052602260045260246000fd5b60006002820490506001821680612c7e57607f821691505b602082108103612c9157612c90612c37565b5b50919050565b7f4552433732313a20617070726f76616c20746f2063757272656e74206f776e6560008201527f7200000000000000000000000000000000000000000000000000000000000000602082015250565b6000612cf360218361252a565b9150612cfe82612c97565b604082019050919050565b60006020820190508181036000830152612d2281612ce6565b9050919050565b7f4552433732313a20617070726f76652063616c6c6572206973206e6f7420746f60008201527f6b656e206f776e6572206f7220617070726f76656420666f7220616c6c000000602082015250565b6000612d85603d8361252a565b9150612d9082612d29565b604082019050919050565b60006020820190508181036000830152612db481612d78565b9050919050565b7f4552433732313a2063616c6c6572206973206e6f7420746f6b656e206f776e6560008201527f72206f7220617070726f76656400000000000000000000000000000000000000602082015250565b6000612e17602d8361252a565b9150612e2282612dbb565b604082019050919050565b60006020820190508181036000830152612e4681612e0a565b9050919050565b7f4e487b7100000000000000000000000000000000000000000000000000000000600052601160045260246000fd5b6000612e87826125d1565b9150612e92836125d1565b9250828202612ea0816125d1565b91508282048414831517612eb757612eb6612e4d565b5b5092915050565b7f4e487b7100000000000000000000000000000000000000000000000000000000600052601260045260246000fd5b6000612ef8826125d1565b9150612f03836125d1565b925082612f1357612f12612ebe565b5b828204905092915050565b7f4552433732313a20696e76616c696420746f6b656e2049440000000000000000600082015250565b6000612f5460188361252a565b9150612f5f82612f1e565b602082019050919050565b60006020820190508181036000830152612f8381612f47565b9050919050565b7f4552433732313a2061646472657373207a65726f206973206e6f74206120766160008201527f6c6964206f776e65720000000000000000000000000000000000000000000000602082015250565b6000612fe660298361252a565b9150612ff182612f8a565b604082019050919050565b6000602082019050818103600083015261301581612fd9565b9050919050565b600081905092915050565b60006130328261251f565b61303c818561301c565b935061304c81856020860161253b565b80840191505092915050565b60006130648285613027565b91506130708284613027565b91508190509392505050565b7f4f776e61626c653a206e6577206f776e657220697320746865207a65726f206160008201527f6464726573730000000000000000000000000000000000000000000000000000602082015250565b60006130d860268361252a565b91506130e38261307c565b604082019050919050565b60006020820190508181036000830152613107816130cb565b9050919050565b7f4552433732313a207472616e736665722066726f6d20696e636f72726563742060008201527f6f776e6572000000000000000000000000000000000000000000000000000000602082015250565b600061316a60258361252a565b91506131758261310e565b604082019050919050565b600060208201905081810360008301526131998161315d565b9050919050565b7f4552433732313a207472616e7366657220746f20746865207a65726f2061646460008201527f7265737300000000000000000000000000000000000000000000000000000000602082015250565b60006131fc60248361252a565b9150613207826131a0565b604082019050919050565b6000602082019050818103600083015261322b816131ef565b9050919050565b7f4f776e61626c653a2063616c6c6572206973206e6f7420746865206f776e6572600082015250565b600061326860208361252a565b915061327382613232565b602082019050919050565b600060208201905081810360008301526132978161325b565b9050919050565b7f455243323938313a20726f79616c7479206665652077696c6c2065786365656460008201527f2073616c65507269636500000000000000000000000000000000000000000000602082015250565b60006132fa602a8361252a565b91506133058261329e565b604082019050919050565b60006020820190508181036000830152613329816132ed565b9050919050565b7f455243323938313a20496e76616c696420706172616d65746572730000000000600082015250565b6000613366601b8361252a565b915061337182613330565b602082019050919050565b6000602082019050818103600083015261339581613359565b9050919050565b7f4552433732313a20617070726f766520746f2063616c6c657200000000000000600082015250565b60006133d260198361252a565b91506133dd8261339c565b602082019050919050565b60006020820190508181036000830152613401816133c5565b9050919050565b7f4552433732313a207472616e7366657220746f206e6f6e20455243373231526560008201527f63656976657220696d706c656d656e7465720000000000000000000000000000602082015250565b600061346460328361252a565b915061346f82613408565b604082019050919050565b6000602082019050818103600083015261349381613457565b9050919050565b7f45524337323155524953746f726167653a2055524920736574206f66206e6f6e60008201527f6578697374656e7420746f6b656e000000000000000000000000000000000000602082015250565b60006134f6602e8361252a565b91506135018261349a565b604082019050919050565b60006020820190508181036000830152613525816134e9565b9050919050565b60008190508160005260206000209050919050565b60006020601f8301049050919050565b600082821b905092915050565b60006008830261358e7fffffffffffffffffffffffffffffffffffffffffffffffffffffffffffffffff82613551565b6135988683613551565b95508019841693508086168417925050509392505050565b6000819050919050565b60006135d56135d06135cb846125d1565b6135b0565b6125d1565b9050919050565b6000819050919050565b6135ef836135ba565b6136036135fb826135dc565b84845461355e565b825550505050565b600090565b61361861360b565b6136238184846135e6565b505050565b5b818110156136475761363c600082613610565b600181019050613629565b5050565b601f82111561368c5761365d8161352c565b61366684613541565b81016020851015613675578190505b61368961368185613541565b830182613628565b50505b505050565b600082821c905092915050565b60006136af60001984600802613691565b1980831691505092915050565b60006136c8838361369e565b9150826002028217905092915050565b6136e18261251f565b67ffffffffffffffff8111156136fa576136f9612819565b5b6137048254612c66565b61370f82828561364b565b600060209050601f8311600181146137425760008415613730578287015190505b61373a85826136bc565b8655506137a2565b601f1984166137508661352c565b60005b8281101561377857848901518255600182019150602085019450602081019050613753565b868310156137955784890151613791601f89168261369e565b8355505b6001600288020188555050505b505050505050565b60006137b5826125d1565b91506137c0836125d1565b92508282039050818111156137d8576137d7612e4d565b5b92915050565b60006137e9826125d1565b91506137f4836125d1565b925082820190508082111561380c5761380b612e4d565b5b92915050565b600081519050919050565b600082825260208201905092915050565b600061383982613812565b613843818561381d565b935061385381856020860161253b565b61385c81612565565b840191505092915050565b600060808201905061387c6000830187612666565b6138896020830186612666565b613896604083018561278f565b81810360608301526138a8818461382e565b905095945050505050565b6000815190506138c281612490565b92915050565b6000602082840312156138de576138dd61245a565b5b60006138ec848285016138b3565b91505092915050565b7f4552433732313a206d696e7420746f20746865207a65726f2061646472657373600082015250565b600061392b60208361252a565b9150613936826138f5565b602082019050919050565b6000602082019050818103600083015261395a8161391e565b9050919050565b7f4552433732313a20746f6b656e20616c7265616479206d696e74656400000000600082015250565b6000613997601c8361252a565b91506139a282613961565b602082019050919050565b600060208201905081810360008301526139c68161398a565b905091905056fea2646970667358221220a84c4c6637e0c430caa7cb488251aa99153c562bff1ae120a2f1dc2e5164728d64736f6c63430008110033",
  "immutableReferences": {},
  "source": "// SPDX-License-Identifier: MIT\npragma solidity >=0.4.22 <0.9.0;\n\nimport \"@openzeppelin/contracts/token/common/ERC2981.sol\";\nimport \"@openzeppelin/contracts/token/ERC721/extensions/ERC721URIStorage.sol\";\nimport \"@openzeppelin/contracts/access/Ownable.sol\";\nimport \"@openzeppelin/contracts/utils/Counters.sol\";\n\ncontract RoyalPets is ERC721URIStorage, ERC2981, Ownable {\n  using Counters for Counters.Counter;\n  Counters.Counter private _tokenIds;\n\n  constructor() ERC721(\"RoyalPets\", \"RP\") {\n    _setDefaultRoyalty(msg.sender, 100);\n  }\n\n  function supportsInterface(bytes4 interfaceId)\n    public view virtual override(ERC721, ERC2981)\n    returns (bool) {\n      return super.supportsInterface(interfaceId);\n  }\n\n  function _burn(uint256 tokenId) internal virtual override {\n    super._burn(tokenId);\n    _resetTokenRoyalty(tokenId);\n  }\n\n  function burnNFT(uint256 tokenId)\n    public onlyOwner {\n      _burn(tokenId);\n  }\n\n  function mintNFT(address recipient, string memory tokenURI)\n    public onlyOwner\n    returns (uint256) {\n      _tokenIds.increment();\n\n      uint256 newItemId = _tokenIds.current();\n      _safeMint(recipient, newItemId);\n      _setTokenURI(newItemId, tokenURI);\n\n      return newItemId;\n  }\n\n  function mintNFTWithRoyalty(address recipient, string memory tokenURI, address royaltyReceiver, uint96 feeNumerator)\n    public onlyOwner\n    returns (uint256) {\n      uint256 tokenId = mintNFT(recipient, tokenURI);\n      _setTokenRoyalty(tokenId, royaltyReceiver, feeNumerator);\n\n      return tokenId;\n  }\n}\n",
  "sourcePath": "d:\\nft-royalty\\contracts\\RoyalPets.sol",
  "compiler": {
    "name": "solc",
    "version": "0.8.17+commit.8df45f5f.Emscripten.clang"
  },
  "schemaVersion": "3.4.11",
  "updatedAt": "2023-02-12T06:17:43.266Z",
  "networkType": "ethereum",
  "devdoc": {
    "kind": "dev",
    "methods": {
      "approve(address,uint256)": {
        "details": "See {IERC721-approve}."
      },
      "balanceOf(address)": {
        "details": "See {IERC721-balanceOf}."
      },
      "getApproved(uint256)": {
        "details": "See {IERC721-getApproved}."
      },
      "isApprovedForAll(address,address)": {
        "details": "See {IERC721-isApprovedForAll}."
      },
      "name()": {
        "details": "See {IERC721Metadata-name}."
      },
      "owner()": {
        "details": "Returns the address of the current owner."
      },
      "ownerOf(uint256)": {
        "details": "See {IERC721-ownerOf}."
      },
      "renounceOwnership()": {
        "details": "Leaves the contract without owner. It will not be possible to call `onlyOwner` functions anymore. Can only be called by the current owner. NOTE: Renouncing ownership will leave the contract without an owner, thereby removing any functionality that is only available to the owner."
      },
      "royaltyInfo(uint256,uint256)": {
        "details": "Returns how much royalty is owed and to whom, based on a sale price that may be denominated in any unit of exchange. The royalty amount is denominated and should be paid in that same unit of exchange."
      },
      "safeTransferFrom(address,address,uint256)": {
        "details": "See {IERC721-safeTransferFrom}."
      },
      "safeTransferFrom(address,address,uint256,bytes)": {
        "details": "See {IERC721-safeTransferFrom}."
      },
      "setApprovalForAll(address,bool)": {
        "details": "See {IERC721-setApprovalForAll}."
      },
      "symbol()": {
        "details": "See {IERC721Metadata-symbol}."
      },
      "tokenURI(uint256)": {
        "details": "See {IERC721Metadata-tokenURI}."
      },
      "transferFrom(address,address,uint256)": {
        "details": "See {IERC721-transferFrom}."
      },
      "transferOwnership(address)": {
        "details": "Transfers ownership of the contract to a new account (`newOwner`). Can only be called by the current owner."
      }
    },
    "version": 1
  },
  "userdoc": {
    "kind": "user",
    "methods": {},
    "version": 1
  }
}